{
  "_format": "hh-sol-artifact-1",
  "contractName": "ReviewerDeployer",
  "sourceName": "contracts/Reviewer.sol",
  "abi": [
    {
      "anonymous": false,
      "inputs": [
        {
          "indexed": false,
          "internalType": "contract ReviewerTransactionGuard",
          "name": "guardContract",
          "type": "address"
        },
        {
          "indexed": false,
          "internalType": "address",
          "name": "safeAddress",
          "type": "address"
        },
        {
          "indexed": false,
          "internalType": "address[]",
          "name": "reviewers",
          "type": "address[]"
        },
        {
          "indexed": false,
          "internalType": "uint96",
          "name": "threshold",
          "type": "uint96"
        }
      ],
      "name": "GuardDeployed",
      "type": "event"
    },
    {
      "inputs": [],
      "name": "counter",
      "outputs": [
        {
          "internalType": "uint256",
          "name": "",
          "type": "uint256"
        }
      ],
      "stateMutability": "view",
      "type": "function"
    },
    {
      "inputs": [
        {
          "internalType": "address",
          "name": "_safeAddress",
          "type": "address"
        },
        {
          "internalType": "address[]",
          "name": "_reviewers",
          "type": "address[]"
        },
        {
          "internalType": "uint96",
          "name": "_threshold",
          "type": "uint96"
        },
        {
          "internalType": "contract IApplicationRegistry",
          "name": "_applicationReg",
          "type": "address"
        },
        {
          "internalType": "contract IApplicationReviewRegistry",
          "name": "_applicationReviewReg",
          "type": "address"
        },
        {
          "internalType": "contract IWorkspaceRegistry",
          "name": "_workspaceReg",
          "type": "address"
        }
      ],
      "name": "deploy",
      "outputs": [],
      "stateMutability": "nonpayable",
      "type": "function"
    }
  ],
  "bytecode": "0x608060405234801561001057600080fd5b50613309806100206000396000f3fe60806040523480156200001157600080fd5b50600436106200003a5760003560e01c806361bc221a146200003f57806375c26f011462000061575b600080fd5b6200004962000081565b60405162000058919062000156565b60405180910390f35b6200007f600480360381019062000079919062000479565b62000087565b005b60005481565b60008686868686866040516200009d906200012d565b620000ae96959493929190620006d9565b604051809103906000f080158015620000cb573d6000803e3d6000fd5b5090506000808154620000de906200077c565b919050819055507f4335527b994d95fd6a96502bba8033716b5baa2e5a43a4617bd42a06121a61a7818888886040516200011c9493929190620007ee565b60405180910390a150505050505050565b612a91806200084383390190565b6000819050919050565b62000150816200013b565b82525050565b60006020820190506200016d600083018462000145565b92915050565b6000604051905090565b600080fd5b600080fd5b600073ffffffffffffffffffffffffffffffffffffffff82169050919050565b6000620001b48262000187565b9050919050565b620001c681620001a7565b8114620001d257600080fd5b50565b600081359050620001e681620001bb565b92915050565b600080fd5b6000601f19601f8301169050919050565b7f4e487b7100000000000000000000000000000000000000000000000000000000600052604160045260246000fd5b6200023c82620001f1565b810181811067ffffffffffffffff821117156200025e576200025d62000202565b5b80604052505050565b60006200027362000173565b905062000281828262000231565b919050565b600067ffffffffffffffff821115620002a457620002a362000202565b5b602082029050602081019050919050565b600080fd5b6000620002d1620002cb8462000286565b62000267565b90508083825260208201905060208402830185811115620002f757620002f6620002b5565b5b835b818110156200032457806200030f8882620001d5565b845260208401935050602081019050620002f9565b5050509392505050565b600082601f830112620003465762000345620001ec565b5b813562000358848260208601620002ba565b91505092915050565b60006bffffffffffffffffffffffff82169050919050565b620003848162000361565b81146200039057600080fd5b50565b600081359050620003a48162000379565b92915050565b6000620003b782620001a7565b9050919050565b620003c981620003aa565b8114620003d557600080fd5b50565b600081359050620003e981620003be565b92915050565b6000620003fc82620001a7565b9050919050565b6200040e81620003ef565b81146200041a57600080fd5b50565b6000813590506200042e8162000403565b92915050565b60006200044182620001a7565b9050919050565b620004538162000434565b81146200045f57600080fd5b50565b600081359050620004738162000448565b92915050565b60008060008060008060c087890312156200049957620004986200017d565b5b6000620004a989828a01620001d5565b965050602087013567ffffffffffffffff811115620004cd57620004cc62000182565b5b620004db89828a016200032e565b9550506040620004ee89828a0162000393565b94505060606200050189828a01620003d8565b93505060806200051489828a016200041d565b92505060a06200052789828a0162000462565b9150509295509295509295565b6200053f81620001a7565b82525050565b600081519050919050565b600082825260208201905092915050565b6000819050602082019050919050565b6200057c81620001a7565b82525050565b600062000590838362000571565b60208301905092915050565b6000602082019050919050565b6000620005b68262000545565b620005c2818562000550565b9350620005cf8362000561565b8060005b8381101562000606578151620005ea888262000582565b9750620005f7836200059c565b925050600181019050620005d3565b5085935050505092915050565b6200061e8162000361565b82525050565b6000819050919050565b60006200064f62000649620006438462000187565b62000624565b62000187565b9050919050565b600062000663826200062e565b9050919050565b6000620006778262000656565b9050919050565b62000689816200066a565b82525050565b60006200069c8262000656565b9050919050565b620006ae816200068f565b82525050565b6000620006c18262000656565b9050919050565b620006d381620006b4565b82525050565b600060c082019050620006f0600083018962000534565b8181036020830152620007048188620005a9565b905062000715604083018762000613565b6200072460608301866200067e565b620007336080830185620006a3565b6200074260a0830184620006c8565b979650505050505050565b7f4e487b7100000000000000000000000000000000000000000000000000000000600052601160045260246000fd5b600062000789826200013b565b91507fffffffffffffffffffffffffffffffffffffffffffffffffffffffffffffffff8203620007be57620007bd6200074d565b5b600182019050919050565b6000620007d68262000656565b9050919050565b620007e881620007c9565b82525050565b6000608082019050620008056000830187620007dd565b62000814602083018662000534565b8181036040830152620008288185620005a9565b905062000839606083018462000613565b9594505050505056fe60806040523480156200001157600080fd5b5060405162002a9138038062002a91833981810160405281019062000037919062000599565b836bffffffffffffffffffffffff16855110156200008c576040517f08c379a00000000000000000000000000000000000000000000000000000000081526004016200008390620006db565b60405180910390fd5b85600360006101000a81548173ffffffffffffffffffffffffffffffffffffffff021916908373ffffffffffffffffffffffffffffffffffffffff1602179055508460049080519060200190620000e5929190620001e5565b5083600560006101000a8154816bffffffffffffffffffffffff02191690836bffffffffffffffffffffffff160217905550826000806101000a81548173ffffffffffffffffffffffffffffffffffffffff021916908373ffffffffffffffffffffffffffffffffffffffff16021790555081600160006101000a81548173ffffffffffffffffffffffffffffffffffffffff021916908373ffffffffffffffffffffffffffffffffffffffff16021790555080600260006101000a81548173ffffffffffffffffffffffffffffffffffffffff021916908373ffffffffffffffffffffffffffffffffffffffff160217905550505050505050620006fd565b82805482825590600052602060002090810192821562000261579160200282015b82811115620002605782518260006101000a81548173ffffffffffffffffffffffffffffffffffffffff021916908373ffffffffffffffffffffffffffffffffffffffff1602179055509160200191906001019062000206565b5b50905062000270919062000274565b5090565b5b808211156200028f57600081600090555060010162000275565b5090565b6000604051905090565b600080fd5b600080fd5b600073ffffffffffffffffffffffffffffffffffffffff82169050919050565b6000620002d482620002a7565b9050919050565b620002e681620002c7565b8114620002f257600080fd5b50565b6000815190506200030681620002db565b92915050565b600080fd5b6000601f19601f8301169050919050565b7f4e487b7100000000000000000000000000000000000000000000000000000000600052604160045260246000fd5b6200035c8262000311565b810181811067ffffffffffffffff821117156200037e576200037d62000322565b5b80604052505050565b60006200039362000293565b9050620003a1828262000351565b919050565b600067ffffffffffffffff821115620003c457620003c362000322565b5b602082029050602081019050919050565b600080fd5b6000620003f1620003eb84620003a6565b62000387565b90508083825260208201905060208402830185811115620004175762000416620003d5565b5b835b818110156200044457806200042f8882620002f5565b84526020840193505060208101905062000419565b5050509392505050565b600082601f8301126200046657620004656200030c565b5b815162000478848260208601620003da565b91505092915050565b60006bffffffffffffffffffffffff82169050919050565b620004a48162000481565b8114620004b057600080fd5b50565b600081519050620004c48162000499565b92915050565b6000620004d782620002c7565b9050919050565b620004e981620004ca565b8114620004f557600080fd5b50565b6000815190506200050981620004de565b92915050565b60006200051c82620002c7565b9050919050565b6200052e816200050f565b81146200053a57600080fd5b50565b6000815190506200054e8162000523565b92915050565b60006200056182620002c7565b9050919050565b620005738162000554565b81146200057f57600080fd5b50565b600081519050620005938162000568565b92915050565b60008060008060008060c08789031215620005b957620005b86200029d565b5b6000620005c989828a01620002f5565b965050602087015167ffffffffffffffff811115620005ed57620005ec620002a2565b5b620005fb89828a016200044e565b95505060406200060e89828a01620004b3565b94505060606200062189828a01620004f8565b93505060806200063489828a016200053d565b92505060a06200064789828a0162000582565b9150509295509295509295565b600082825260208201905092915050565b7f5468726573686f6c642063616e27742062652067726561746572207468616e2060008201527f746865206e756d626572206f6620726576696577657273000000000000000000602082015250565b6000620006c360378362000654565b9150620006d08262000665565b604082019050919050565b60006020820190508181036000830152620006f681620006b4565b9050919050565b612384806200070d6000396000f3fe608060405234801561001057600080fd5b506004361061011a5760003560e01c80638c1dceac116100a2578063afa30f0211610071578063afa30f02146102b7578063c9442dac146102d5578063cd0fea19146102f1578063f8ad35f21461030f578063fcdd92801461032d5761011b565b80638c1dceac146102335780638cd769831461024f578063932713681461026b5780639cc616f6146102875761011b565b806342cde4e8116100e957806342cde4e8146101a357806354923ef9146101c15780635578110c146101dd57806373a82b5f146101fb57806375f0bb52146102175761011b565b806301ffc9a71461011d57806319cd9a161461014d57806328c5e4f214610169578063359d1436146101855761011b565b5b005b6101376004803603810190610132919061137b565b61034b565b60405161014491906113c3565b60405180910390f35b6101676004803603810190610162919061144e565b61041d565b005b610183600480360381019061017e91906114bf565b6104f0565b005b61018d6105b4565b60405161019a91906114fb565b60405180910390f35b6101ab6105d8565b6040516101b89190611525565b60405180910390f35b6101db60048036038101906101d6919061156c565b6105f6565b005b6101e5610a5b565b6040516101f291906115bb565b60405180910390f35b610215600480360381019061021091906115d6565b610a81565b005b610231600480360381019061022c91906117e2565b610b77565b005b61024d6004803603810190610248919061194c565b610e1c565b005b610269600480360381019061026491906119b7565b610ef0565b005b61028560048036038101906102809190611a46565b610fc4565b005b6102a1600480360381019061029c9190611a86565b610fc8565b6040516102ae91906115bb565b60405180910390f35b6102bf611007565b6040516102cc9190611b12565b60405180910390f35b6102ef60048036038101906102ea91906115d6565b61102b565b005b6102f9611275565b6040516103069190611b4e565b60405180910390f35b61031761129b565b60405161032491906114fb565b60405180910390f35b6103356112bf565b6040516103429190611b8a565b60405180910390f35b60007fe6d7a83a000000000000000000000000000000000000000000000000000000007bffffffffffffffffffffffffffffffffffffffffffffffffffffffff1916827bffffffffffffffffffffffffffffffffffffffffffffffffffffffff1916148061041657507f01ffc9a7000000000000000000000000000000000000000000000000000000007bffffffffffffffffffffffffffffffffffffffffffffffffffffffff1916827bffffffffffffffffffffffffffffffffffffffffffffffffffffffff1916145b9050919050565b600360009054906101000a900473ffffffffffffffffffffffffffffffffffffffff1673ffffffffffffffffffffffffffffffffffffffff163373ffffffffffffffffffffffffffffffffffffffff16146104ad576040517f08c379a00000000000000000000000000000000000000000000000000000000081526004016104a490611c02565b60405180910390fd5b806000806101000a81548173ffffffffffffffffffffffffffffffffffffffff021916908373ffffffffffffffffffffffffffffffffffffffff16021790555050565b600360009054906101000a900473ffffffffffffffffffffffffffffffffffffffff1673ffffffffffffffffffffffffffffffffffffffff163373ffffffffffffffffffffffffffffffffffffffff1614610580576040517f08c379a000000000000000000000000000000000000000000000000000000000815260040161057790611c02565b60405180910390fd5b80600560006101000a8154816bffffffffffffffffffffffff02191690836bffffffffffffffffffffffff16021790555050565b7fe19a9dd90000000000000000000000000000000000000000000000000000000081565b600560009054906101000a90046bffffffffffffffffffffffff1681565b60008060009054906101000a900473ffffffffffffffffffffffffffffffffffffffff1673ffffffffffffffffffffffffffffffffffffffff1663af7eb0c3846040518263ffffffff1660e01b81526004016106529190611525565b600060405180830381865afa15801561066f573d6000803e3d6000fd5b505050506040513d6000823e3d601f19601f820116820180604052508101906106989190611d55565b909192939495965090919293949550909192939450909192509091509050508091505060008060009054906101000a900473ffffffffffffffffffffffffffffffffffffffff1673ffffffffffffffffffffffffffffffffffffffff1663528eed498473ffffffffffffffffffffffffffffffffffffffff1660001b6040518263ffffffff1660e01b81526004016107309190611e36565b602060405180830381865afa15801561074d573d6000803e3d6000fd5b505050506040513d601f19601f820116820180604052508101906107719190611e51565b90508173ffffffffffffffffffffffffffffffffffffffff168173ffffffffffffffffffffffffffffffffffffffff16146107e1576040517f08c379a00000000000000000000000000000000000000000000000000000000081526004016107d890611f16565b60405180910390fd5b6000805b600480549050816bffffffffffffffffffffffff1610156109da5760606000600260009054906101000a900473ffffffffffffffffffffffffffffffffffffffff1673ffffffffffffffffffffffffffffffffffffffff166328eed3386004856bffffffffffffffffffffffff168154811061086457610863611f36565b5b9060005260206000200160009054906101000a900473ffffffffffffffffffffffffffffffffffffffff166040518263ffffffff1660e01b81526004016108ab91906115bb565b602060405180830381865afa1580156108c8573d6000803e3d6000fd5b505050506040513d601f19601f820116820180604052508101906108ec9190611e51565b9050600160009054906101000a900473ffffffffffffffffffffffffffffffffffffffff1673ffffffffffffffffffffffffffffffffffffffff166331414bc1828a6040518363ffffffff1660e01b815260040161094b929190611f65565b600060405180830381865afa158015610968573d6000803e3d6000fd5b505050506040513d6000823e3d601f19601f820116820180604052508101906109919190611fa3565b90919293949550909192939450909192935090919250909150508092505060008251146109c557836109c290612090565b93505b505080806109d290612090565b9150506107e5565b50600560009054906101000a90046bffffffffffffffffffffffff166bffffffffffffffffffffffff16816bffffffffffffffffffffffff161015610a54576040517f08c379a0000000000000000000000000000000000000000000000000000000008152600401610a4b9061215c565b60405180910390fd5b5050505050565b600360009054906101000a900473ffffffffffffffffffffffffffffffffffffffff1681565b600360009054906101000a900473ffffffffffffffffffffffffffffffffffffffff1673ffffffffffffffffffffffffffffffffffffffff163373ffffffffffffffffffffffffffffffffffffffff1614610b11576040517f08c379a0000000000000000000000000000000000000000000000000000000008152600401610b0890611c02565b60405180910390fd5b6004819080600181540180825580915050600190039060005260206000200160009091909190916101000a81548173ffffffffffffffffffffffffffffffffffffffff021916908373ffffffffffffffffffffffffffffffffffffffff16021790555050565b7fe19a9dd9000000000000000000000000000000000000000000000000000000007bffffffffffffffffffffffffffffffffffffffffffffffffffffffff1916610bc08a6112e5565b7bffffffffffffffffffffffffffffffffffffffffffffffffffffffff191603610c1f576040517f08c379a0000000000000000000000000000000000000000000000000000000008152600401610c16906121ee565b60405180910390fd5b600360009054906101000a900473ffffffffffffffffffffffffffffffffffffffff1673ffffffffffffffffffffffffffffffffffffffff168b73ffffffffffffffffffffffffffffffffffffffff16141580610ca857503073ffffffffffffffffffffffffffffffffffffffff168b73ffffffffffffffffffffffffffffffffffffffff1614155b15610e0f576000807f8d80ff0a000000000000000000000000000000000000000000000000000000007bffffffffffffffffffffffffffffffffffffffffffffffffffffffff1916610cf98c6112e5565b7bffffffffffffffffffffffffffffffffffffffffffffffffffffffff191603610de757600060d9610d2c8d60446112f3565b610d36919061223d565b905060005b816bffffffffffffffffffffffff16816bffffffffffffffffffffffff161015610de057610d8f8d60d983610d70919061226e565b60fd610d7c91906122ab565b6bffffffffffffffffffffffff166112f3565b9350610dc18d60d983610da2919061226e565b60bd610dae91906122ab565b6bffffffffffffffffffffffff16611301565b9250610dcd84846105f6565b8080610dd890612090565b915050610d3b565b5050610e0c565b610df28b60646112f3565b9150610dff8b6024611301565b9050610e0b82826105f6565b5b50505b5050505050505050505050565b600360009054906101000a900473ffffffffffffffffffffffffffffffffffffffff1673ffffffffffffffffffffffffffffffffffffffff163373ffffffffffffffffffffffffffffffffffffffff1614610eac576040517f08c379a0000000000000000000000000000000000000000000000000000000008152600401610ea390611c02565b60405180910390fd5b80600260006101000a81548173ffffffffffffffffffffffffffffffffffffffff021916908373ffffffffffffffffffffffffffffffffffffffff16021790555050565b600360009054906101000a900473ffffffffffffffffffffffffffffffffffffffff1673ffffffffffffffffffffffffffffffffffffffff163373ffffffffffffffffffffffffffffffffffffffff1614610f80576040517f08c379a0000000000000000000000000000000000000000000000000000000008152600401610f7790611c02565b60405180910390fd5b80600160006101000a81548173ffffffffffffffffffffffffffffffffffffffff021916908373ffffffffffffffffffffffffffffffffffffffff16021790555050565b5050565b60048181548110610fd857600080fd5b906000526020600020016000915054906101000a900473ffffffffffffffffffffffffffffffffffffffff1681565b60008054906101000a900473ffffffffffffffffffffffffffffffffffffffff1681565b600360009054906101000a900473ffffffffffffffffffffffffffffffffffffffff1673ffffffffffffffffffffffffffffffffffffffff163373ffffffffffffffffffffffffffffffffffffffff16146110bb576040517f08c379a00000000000000000000000000000000000000000000000000000000081526004016110b290611c02565b60405180910390fd5b60005b600480549050816bffffffffffffffffffffffff161015611271578173ffffffffffffffffffffffffffffffffffffffff166004826bffffffffffffffffffffffff168154811061111257611111611f36565b5b9060005260206000200160009054906101000a900473ffffffffffffffffffffffffffffffffffffffff1673ffffffffffffffffffffffffffffffffffffffff160361125e576004600160048054905061116c91906122eb565b8154811061117d5761117c611f36565b5b9060005260206000200160009054906101000a900473ffffffffffffffffffffffffffffffffffffffff166004826bffffffffffffffffffffffff16815481106111ca576111c9611f36565b5b9060005260206000200160006101000a81548173ffffffffffffffffffffffffffffffffffffffff021916908373ffffffffffffffffffffffffffffffffffffffff16021790555060048054806112245761122361231f565b5b6001900381819060005260206000200160006101000a81549073ffffffffffffffffffffffffffffffffffffffff02191690559055611271565b808061126990612090565b9150506110be565b5050565b600160009054906101000a900473ffffffffffffffffffffffffffffffffffffffff1681565b7f8d80ff0a0000000000000000000000000000000000000000000000000000000081565b600260009054906101000a900473ffffffffffffffffffffffffffffffffffffffff1681565b600060208201519050919050565b600081830151905092915050565b600081830151905092915050565b6000604051905090565b600080fd5b600080fd5b60007fffffffff0000000000000000000000000000000000000000000000000000000082169050919050565b61135881611323565b811461136357600080fd5b50565b6000813590506113758161134f565b92915050565b60006020828403121561139157611390611319565b5b600061139f84828501611366565b91505092915050565b60008115159050919050565b6113bd816113a8565b82525050565b60006020820190506113d860008301846113b4565b92915050565b600073ffffffffffffffffffffffffffffffffffffffff82169050919050565b6000611409826113de565b9050919050565b600061141b826113fe565b9050919050565b61142b81611410565b811461143657600080fd5b50565b60008135905061144881611422565b92915050565b60006020828403121561146457611463611319565b5b600061147284828501611439565b91505092915050565b60006bffffffffffffffffffffffff82169050919050565b61149c8161147b565b81146114a757600080fd5b50565b6000813590506114b981611493565b92915050565b6000602082840312156114d5576114d4611319565b5b60006114e3848285016114aa565b91505092915050565b6114f581611323565b82525050565b600060208201905061151060008301846114ec565b92915050565b61151f8161147b565b82525050565b600060208201905061153a6000830184611516565b92915050565b611549816113fe565b811461155457600080fd5b50565b60008135905061156681611540565b92915050565b6000806040838503121561158357611582611319565b5b6000611591858286016114aa565b92505060206115a285828601611557565b9150509250929050565b6115b5816113fe565b82525050565b60006020820190506115d060008301846115ac565b92915050565b6000602082840312156115ec576115eb611319565b5b60006115fa84828501611557565b91505092915050565b6000819050919050565b61161681611603565b811461162157600080fd5b50565b6000813590506116338161160d565b92915050565b600080fd5b600080fd5b6000601f19601f8301169050919050565b7f4e487b7100000000000000000000000000000000000000000000000000000000600052604160045260246000fd5b61168c82611643565b810181811067ffffffffffffffff821117156116ab576116aa611654565b5b80604052505050565b60006116be61130f565b90506116ca8282611683565b919050565b600067ffffffffffffffff8211156116ea576116e9611654565b5b6116f382611643565b9050602081019050919050565b82818337600083830152505050565b600061172261171d846116cf565b6116b4565b90508281526020810184848401111561173e5761173d61163e565b5b611749848285611700565b509392505050565b600082601f83011261176657611765611639565b5b813561177684826020860161170f565b91505092915050565b6002811061178c57600080fd5b50565b60008135905061179e8161177f565b92915050565b60006117af826113de565b9050919050565b6117bf816117a4565b81146117ca57600080fd5b50565b6000813590506117dc816117b6565b92915050565b60008060008060008060008060008060006101608c8e03121561180857611807611319565b5b60006118168e828f01611557565b9b505060206118278e828f01611624565b9a505060408c013567ffffffffffffffff8111156118485761184761131e565b5b6118548e828f01611751565b99505060606118658e828f0161178f565b98505060806118768e828f01611624565b97505060a06118878e828f01611624565b96505060c06118988e828f01611624565b95505060e06118a98e828f01611557565b9450506101006118bb8e828f016117cd565b9350506101208c013567ffffffffffffffff8111156118dd576118dc61131e565b5b6118e98e828f01611751565b9250506101406118fb8e828f01611557565b9150509295989b509295989b9093969950565b6000611919826113fe565b9050919050565b6119298161190e565b811461193457600080fd5b50565b60008135905061194681611920565b92915050565b60006020828403121561196257611961611319565b5b600061197084828501611937565b91505092915050565b6000611984826113fe565b9050919050565b61199481611979565b811461199f57600080fd5b50565b6000813590506119b18161198b565b92915050565b6000602082840312156119cd576119cc611319565b5b60006119db848285016119a2565b91505092915050565b6000819050919050565b6119f7816119e4565b8114611a0257600080fd5b50565b600081359050611a14816119ee565b92915050565b611a23816113a8565b8114611a2e57600080fd5b50565b600081359050611a4081611a1a565b92915050565b60008060408385031215611a5d57611a5c611319565b5b6000611a6b85828601611a05565b9250506020611a7c85828601611a31565b9150509250929050565b600060208284031215611a9c57611a9b611319565b5b6000611aaa84828501611624565b91505092915050565b6000819050919050565b6000611ad8611ad3611ace846113de565b611ab3565b6113de565b9050919050565b6000611aea82611abd565b9050919050565b6000611afc82611adf565b9050919050565b611b0c81611af1565b82525050565b6000602082019050611b276000830184611b03565b92915050565b6000611b3882611adf565b9050919050565b611b4881611b2d565b82525050565b6000602082019050611b636000830184611b3f565b92915050565b6000611b7482611adf565b9050919050565b611b8481611b69565b82525050565b6000602082019050611b9f6000830184611b7b565b92915050565b600082825260208201905092915050565b7f556e617574686f72697365643a204e6f74207468652053616665000000000000600082015250565b6000611bec601a83611ba5565b9150611bf782611bb6565b602082019050919050565b60006020820190508181036000830152611c1b81611bdf565b9050919050565b600081519050611c3181611493565b92915050565b600081519050611c4681611540565b92915050565b600065ffffffffffff82169050919050565b611c6781611c4c565b8114611c7257600080fd5b50565b600081519050611c8481611c5e565b92915050565b600067ffffffffffffffff821115611ca557611ca4611654565b5b611cae82611643565b9050602081019050919050565b60005b83811015611cd9578082015181840152602081019050611cbe565b60008484015250505050565b6000611cf8611cf384611c8a565b6116b4565b905082815260208101848484011115611d1457611d1361163e565b5b611d1f848285611cbb565b509392505050565b600082601f830112611d3c57611d3b611639565b5b8151611d4c848260208601611ce5565b91505092915050565b600080600080600080600080610100898b031215611d7657611d75611319565b5b6000611d848b828c01611c22565b9850506020611d958b828c01611c22565b9750506040611da68b828c01611c37565b9650506060611db78b828c01611c37565b9550506080611dc88b828c01611c75565b94505060a0611dd98b828c01611c75565b93505060c089015167ffffffffffffffff811115611dfa57611df961131e565b5b611e068b828c01611d27565b92505060e0611e178b828c01611c22565b9150509295985092959890939650565b611e30816119e4565b82525050565b6000602082019050611e4b6000830184611e27565b92915050565b600060208284031215611e6757611e66611319565b5b6000611e7584828501611c37565b91505092915050565b7f5468652070726f706f73616c20617574686f722c206170706c69636174696f6e60008201527f20616e64207061796d656e74206164647265737320686176652061206d69736d60208201527f6174636800000000000000000000000000000000000000000000000000000000604082015250565b6000611f00604483611ba5565b9150611f0b82611e7e565b606082019050919050565b60006020820190508181036000830152611f2f81611ef3565b9050919050565b7f4e487b7100000000000000000000000000000000000000000000000000000000600052603260045260246000fd5b6000604082019050611f7a60008301856115ac565b611f876020830184611516565b9392505050565b600081519050611f9d81611a1a565b92915050565b600080600080600080600060e0888a031215611fc257611fc1611319565b5b6000611fd08a828b01611c22565b9750506020611fe18a828b01611c22565b9650506040611ff28a828b01611c22565b95505060606120038a828b01611c37565b94505060806120148a828b01611c37565b93505060a088015167ffffffffffffffff8111156120355761203461131e565b5b6120418a828b01611d27565b92505060c06120528a828b01611f8e565b91505092959891949750929550565b7f4e487b7100000000000000000000000000000000000000000000000000000000600052601160045260246000fd5b600061209b8261147b565b91506bffffffffffffffffffffffff82036120b9576120b8612061565b5b600182019050919050565b7f546865207468726573686f6c6420746f2074616b652061206465636973696f6e60008201527f206f6e2074686973206170706c69636174696f6e20686173206e6f742062656560208201527f6e20726561636865642079657421000000000000000000000000000000000000604082015250565b6000612146604e83611ba5565b9150612151826120c4565b606082019050919050565b6000602082019050818103600083015261217581612139565b9050919050565b7f546869732067756172642063616e6e6f742062652072656d6f766564206f722060008201527f6368616e67656421000000000000000000000000000000000000000000000000602082015250565b60006121d8602883611ba5565b91506121e38261217c565b604082019050919050565b60006020820190508181036000830152612207816121cb565b9050919050565b7f4e487b7100000000000000000000000000000000000000000000000000000000600052601260045260246000fd5b60006122488261147b565b91506122538361147b565b9250826122635761226261220e565b5b828204905092915050565b60006122798261147b565b91506122848361147b565b92508282026122928161147b565b91508082146122a4576122a3612061565b5b5092915050565b60006122b68261147b565b91506122c18361147b565b925082820190506bffffffffffffffffffffffff8111156122e5576122e4612061565b5b92915050565b60006122f682611603565b915061230183611603565b925082820390508181111561231957612318612061565b5b92915050565b7f4e487b7100000000000000000000000000000000000000000000000000000000600052603160045260246000fdfea26469706673582212207c4f433ade3f4745df397320bf050a9f7bca708bfeec0f9e19be5bd786ec3ec864736f6c63430008110033a26469706673582212202761d9e44f140030108b6f32aa54ea937b5cb408a5c854104f331f53530f984e64736f6c63430008110033",
  "linkReferences": {},
  "deployedLinkReferences": {}
}